:0400000080310A2819
:100008007E1480318931A5217E1009009431582C45
:10001800D800A0308600023087004030C30000308E
:100028001E00C30B142858088600033087000108F7
:10003800713A031DAB28580A86000108533A031D7C
:10004800AB28CD279031362080318831702080311F
:1000580095302300D5004030D601D701D801DC0007
:100068000230DB000F30DA01D9000127803123008C
:100078000230D801D7000130D601D5003030DC017C
:10008800DB01DA000230D900012780311B30230060
:10009800D5003030D601D701D801DC01DB01DA0008
:1000A8000230D900012794302300D500D601D701AA
:1000B800D80191313F2180312F30D801D700C0308D
:1000C800D6000430D500FF30DC01DB01DA008030D7
:1000D800D9000430DD009D31092580312400D90183
:1000E8000230590203188B2805302100A000240093
:1000F800590883278031603E86000330870000302E
:10010800C03FC13FC23FC33F2400D90A7428D90168
:100118000430590203189E28590809070907A03E08
:100128008600033087000030C03FC13FC23FC33F55
:10013800D90A8C2890317220803125006030ED0179
:100148002400B5009930B6002B309631D12E5808CE
:1001580086000330870001083F3A031DBA28A930FA
:10016800B5009930B6002B309631D12E580886004C
:10017800033087000108673A031D1D29EF3021006D
:10018800A9002B309E31792680312400D401D50175
:10019800D601D701A0302300E8000230E90024008E
:1001A80057082100C700240056082100C600240073
:1001B80055082100C500240054082100C4009331CB
:1001C8000923803147082300ED0021004608230059
:1001D800EC00210045082300EB002100440823001F
:1001E800EA000430EE00EF019F3120278031EF3024
:1001F8002100AB00A0309431052480312400D40ABA
:100208000319D50A0319D60A0319D70A0030570269
:10021800031D182900305602031D18290030550205
:10022800031D182920305402031CCE28EF309E31BC
:10023800BB2E58088600033087000108703A031D5A
:10024800E529D3012100A001240058082100A100BC
:1002580024004208FF3E9027803123082400D7005D
:10026800210022082400D600210021082400D500FE
:10027800210020082400D4005708D1005608D000D7
:100288005508CF005408CE0000305702031D5629E8
:1002980000305602031D562900305502031D562909
:1002A8002030540257080318A1292100C700240050
:1002B80056082100C600240055082100C500240066
:1002C80054082100C40093310923803147082400D1
:1002D800D100210046082400D00021004508240050
:1002E800CF00210044089E29953089299430892916
:1002F800083089291B30892923000230D801D7000A
:100308000130D601D5008E291A302300D500D60138
:10031800D701D80191313F21803158082400D100FC
:10032800230057082400D000230056082400CF00DB
:10033800230055082400CE00C329003A0319BE291A
:10034800C3295508003A0319AA29C3295408403A71
:1003580003198829013A03198029033A03197E29C8
:10036800013A03197C29063A03197A29033A031931
:100378007829C3295608003A0319A529C329A030AA
:100388002300E8000230E900240051082300ED00B2
:10039800240050082300EC0024004F082300EB0041
:1003A80024004E082300EA000430EE00EF019F31DC
:1003B80020278031A030B5000230B6002B309631AE
:1003C800D12E58088600033087000108503A031DD3
:1003D800FA2A4208D900D9080319FE2959085807EA
:1003E800C30086000330870001083D3A0319FE293F
:1003F800D90BF22959082100A0002400580821002F
:10040800A10024004208FF3E9027803123082400E1
:10041800D100210022082400D00021002108240056
:10042800CF00210020082400CE002100A0012400D4
:1004380058082100A10024005908FF3E9027803168
:1004480020082400CD0020304D020318442A4D080E
:100458002100C400C501C601C701240051082100BC
:10046800CB00240050082100CA0024004F082100B6
:10047800C90024004E082100C8009D31C4258031E0
:1004880024004D08413A031D622A23000230D80196
:10049800D7000130D601D500240051082300DC0024
:1004A800240050082300DB0024004F082300DA0052
:1004B80024004E082300D9000127803124004D086C
:1004C800423A031D7F2A1B302300D500D601D701ED
:1004D800D801240051082300DC0024005008230020
:1004E800DB0024004F082300DA0024004E08230014
:1004F800D9000127803124004D08403A031D9C2A69
:100508001A302300D500D601D701D801240051089C
:100518002300DC00240050082300DB0024004F08DF
:100528002300DA0024004E082300D9000127803177
:1005380024004D08433A031DB92A08302300D5008A
:10054800D601D701D801240051082300DC0024007B
:1005580050082300DB0024004F082300DA002400A1
:100568004E082300D9000127803124004D08453A60
:10057800031DD62A94302300D500D601D701D8010F
:10058800240051082300DC00240050082300DB006D
:1005980024004F082300DA0024004E082300D90065
:1005A8000127803124004D08463A031DF22A953070
:1005B8002300D500D601D701D80124005108230013
:1005C800DC00240050082300DB0024004F0823002F
:1005D800DA0024004E082300D9000127B130240096
:1005E800B5009930B6002B309631D12E58088600C8
:1005F8000330870001086D3A031DE52BD30142083B
:10060800FF3ED300D3080319152B53085807C3001E
:1006180086000330870001082C3A0319152BD30BE9
:10062800092B53082100A000240058082100A1002C
:1006380024004208FF3E9027803120082400D20081
:100648002100A001240058082100A100240053081B
:10065800FF3E902723082400D70021002208240009
:10066800D600210021082400D500210020082400FC
:10067800D400EF302100A9002B309E31792680313B
:100688002400D3015208C300C336C33643085302BB
:100698000318942BA0302300E8000230E90024005E
:1006A8005308C300C401C335C40DC335C40D430882
:1006B8002300D500240044082300D600890D893B77
:1006C8008909D700D800240054082300D50724003E
:1006D80055082300D63D240056082300D73D2400A2
:1006E80057082300D83D0430D9009D315D2580315D
:1006F8005808ED005708EC005608EB005508EA00CA
:100708000430EE00EF019F3120278031EF302100C7
:10071800AB00A0309431052480312400D30A462B45
:10072800530809070907D900D301520803395302AE
:100738000318E22BA0302300E8000230E90024006F
:1007480053082300D500D601D701D8012400590841
:100758002300D50701300318D6070318D707031855
:10076800D807240054082300D5072400550823007F
:10077800D63D240056082300D73D240057082300FF
:10078800D83DD901D90A9D315D2580315808ED0041
:100798005708EC005608EB005508EA00EE01EE0A8F
:1007A800EF019F3120278031EF302100AB00A030CE
:1007B8009431052480312400D30A992BEF309E31DF
:1007C800BB2E580886000330870001084D3A031DE8
:1007D800EF2CD401D501D601D7014208FD3ED9003E
:1007E800D9080319032C59085807C3008600033099
:1007F800870001082C3A0319032CD90BF72B590849
:100808005807C300860003308700413FCC00D90356
:10081800D301D9080319382C59085807C300860092
:10082800033087000108D2003A305202031C1E2C04
:100838000730D20252080F39C300C401C501C601EE
:10084800530A2A2CC335C40DC50DC60D890B262C99
:100858004308D4074408D53D4508D63D4608D73D4A
:100868000430D307D9030D2C4208FD3ED900D9081E
:1008780003194A2C59085807C3008600033087001B
:1008880001083A3A03194A2CD90B3E2C5908C700DB
:100898002100A000240058082100A10024004208DB
:1008A800FF3E9027803123082400CB002100220836
:1008B8002400CA00210021082400C90021002008C2
:1008C8002400C8004C08333A031D8B2C570823001A
:1008D800D800240056082300D70024005508230018
:1008E800D600240054082300D50024004A08230019
:1008F800DC00240049082300DB002400480823000A
:10090800DA000430D901DD009D3109258031240049
:100918004C08323A031DB92C4B082300DC00240094
:100928004A082300DB00240049082300DA002400D9
:1009380048082300D900FF30D905DA05DB01DC01BE
:10094800240057082300D800240056082300D700A5
:10095800240055082300D600240054082300D5009D
:100968000230DD009D310925803124004C08313AE0
:10097800031DE72C4B082300DC0024004A08230051
:10098800DB00240049082300DA002400480823007B
:10099800D900FF30D905DA01DB01DC012400570852
:1009A8002300D800240056082300D7002400550847
:1009B8002300D600240054082300D500DD01DD0AF9
:1009C8009D3109258031B1302400B5009930B60039
:1009D8002B309631D12E5808860003308700010845
:1009E8005A3A031D1C2E58088600413FD200023097
:1009F8002100A000240058082100A100240042087A
:100A0800FD3E9027803123082400D70021002208CA
:100A18002400D600210021082400D5002100200848
:100A28002400D400D3015208323A0319232D520866
:100A3800333A0319232D5208343A031DBD2DD90129
:100A4800262DD90A023059020318502D05302100ED
:100A5800A0002400590883278031603E86000330B7
:100A68008700403F2400C300413FC400423FC50007
:100A7800433FC60057084606031D4C2D5608450639
:100A8800031D4C2D55084406031D4C2D54084306E0
:100A9800031D252DD301D30AD308031D112ED90117
:100AA800023059020318112E05302100A00024003D
:100AB800590883278031603E860003308700403F15
:100AC8002400C300413FC400423FC500433FC60065
:100AD8004608450444044304031DBB2D053021008A
:100AE800A0002400590883278031603E8600033027
:100AF800870024005408C03F5508C13F5608C23F2C
:100B08005708C33F5208323A031D972D053021007C
:100B1800A0002400590883278031643E86000330F2
:100B280087008101810A24005208333A031DA82D49
:100B380005302100A0002400590883278031643E35
:100B4800860003308700810124005208343A031DCF
:100B5800112E05302100A000240059088327803178
:100B6800643E86000330870002308100112ED90AC6
:100B7800542DD901C02DD90A043059020318E52D86
:100B8800590809070907A03E860003308700403F3F
:100B9800C300413FC400423FC500433FC600570859
:100BA8004606031DE12D56084506031DE12D55088F
:100BB8004406031DE12D54084306031DBF2DD30130
:100BC800D30AD308031D112ED901EB2DD90A0430FD
:100BD80059020318112E590809070907A03E860073
:100BE80003308700403FC300413FC400423FC50077
:100BF800433FC6004608450444044304031DEA2D48
:100C0800590809070907A03E86005408C03F55083F
:100C1800C13F5608C23F5708C33F90317220803108
:100C2800B1302400B5009930B6002B309631D12E62
:100C3800580886000330870001087A3A031DC92E38
:100C480058088600413FD20002302100A00024004D
:100C580058082100A10024004208FD3E9027803159
:100C680023082400D700210022082400D6002100F0
:100C780021082400D500210020082400D400D30135
:100C88005208323A0319502E5208333A0319502E9B
:100C98005208343A031D8C2ED90102305902031828
:100CA800BE2E05302100A00024005908832780317A
:100CB800603E860003308700403F2400C300413F68
:100CC800C400423FC500433FC60057084606031DFF
:100CD800772E56084506031D772E55084406031D32
:100CE800772E54084306031D8A2E05302100A000E4
:100CF8002400590883278031603E8600033087002E
:100D08000030C03FC13FC23FC33FBE2ED90A512E5B
:100D1800D9018F2ED90A043059020318BE2E59085A
:100D280009070907A03E860003308700403FC3003B
:100D3800413FC400423FC500433FC600570846062E
:100D4800031DB02E56084506031DB02E550844064F
:100D5800031DB02E54084306031D8E2E590809079B
:100D68000907A03E8600033087000030C03FC13F1E
:100D7800C23FC33F903172208031B1302400B500AA
:100D88009930B6002B309631D12E580886000330A2
:100D980087000108733A031DD72E9A318322023047
:100DA8002500ED0008005808860003308700010878
:100DB800633A031DE52E9A31ED222500ED01ED0A77
:100DC800080058088600033087000108483A031DC8
:100DD800FA2E580A86000108633A031DFA2EB1302C
:100DE800B5009930B6002B309631D12EA830B50019
:100DF8009930B6002B309631D12E9E310F26803196
:100E08002100C401C501C601C70123005C082100F7
:100E1800CB0023005B082100CA0023005A082100E8
:100E2800C900230059082100C8009D31C42580311C
:100E3800FC302400A5051F302300DD00DE01DF01A2
:100E4800E0015508E1005608E2005708E300580899
:100E5800E4000530E436E30CE20CE10C890B2E2F9C
:100E68006108DD056208DE056308DF056408E00542
:100E78001F305505E5000030E601E7015805E80098
:100E88000530E535E60DE70DE80D890B452F6508BA
:100E9800DD046608DE046708DF046808E0040B3038
:100EA800DD35DE0DDF0DE00D890B542F6008EE27D0
:100EB8008031A6302300DD000330DE007C30DF0106
:100EC800E0002630860002308700403FDD07413FC2
:100ED800DE3D423FDF3D433FE03D6008EE272530E1
:100EE8002100A8000230A9002030AA000230AB007F
:100EF8009131D6218031AB1B08009E313D2E210057
:100F0800A200A10120082218A107A035A236A20834
:100F1800031D862F210808002100A800AD01A901A2
:100F2800AA01AB01AC01AE002E0820020318C42FA1
:100F38002E082107A4008600033087000108AF00AF
:100F48003A302F02031CAA2F0730AF022F080F399F
:100F5800A400A501A601A7012D0AB62FA435A50D49
:100F6800A60DA70D890BB22F2408A9072508AA3DAD
:100F78002608AB3D2708AC3D0430AD07AE03982FDB
:100F88002C08A3002B08A2002A08A1002908A00009
:100F9800080022000E138E1102302100A200383002
:100FA800A100AD30A000A00BD72FA10BD72FA20B0B
:100FB800D72F22000E178E1502302100A2003830DC
:100FC800A100AD30A000A00BE72FA10BE72FA20BCB
:100FD800E72F08002400A90023005F082400A800C8
:100FE80023005E082400A70023005D082400A60053
:020FF8000800EF
:10102A006400013080010131FE020030FF3B7F087D
:10103A007E040319003416282100A2003A30220245
:10104A00031C29280730A2023A302002031C2F2849
:10105A000730A0020F302005A100220EF03921042A
:10106A00080003302300DB047F3098209131D62119
:10107A008831AB1B08002300D901DA01D501D6015A
:10108A00D701D801682800305802031D56280030BD
:10109A005702031D562803305602031D5628E8300E
:1010AA00550203186A287020883145082300DA009F
:1010BA00210044082300D900D50A0319D60A0319C6
:1010CA00D70A0319D80A591F48280330DB041F30EE
:1010DA0098209131D62903302300CB04CB30CC01A0
:1010EA00CD01CE01CF012100A8000130A900D030E6
:1010FA00AA000130AB009131D6218831AB1F8A2872
:10110A00C401C501C601C70108000130D03E8600EE
:10111A0001308700403FC400413FC500423FC6003E
:10112A00433FC7000800DC00DB30DD01DE01DF01E0
:10113A002100A8000130A900E030AA000130AB006C
:10114A000800A0009B2787010310811F03140030A9
:10115A00093D0800A4000730A0002408873183272E
:10116A008831BA3E860003308700230884000230A3
:10117A008500403F803F413F813F2408F527870192
:10118A000108080011109110920197018E1511168D
:10119A0011159011901190119011900192159216BB
:1011AA0012149830F0000E30F1001030B127883157
:1011BA00B82688313D001816981118159814181079
:1011CA002000BF01BF0A3F08983EBD000E30BE0195
:1011DA00BE3D3D08C0003E08C100400886004108E7
:1011EA0087000116400886004108870081154008DB
:1011FA0086004108870001154008860041088700DB
:10120A008114400886004108870003300110BF0A94
:10121A003F02031CE8283D0096012600EB0120004E
:10122A00EF011C2188318C262100121508003D008F
:10123A000E172500EC012000BC010730F0003C0825
:10124A00B4258831C03E860003308700043081000F
:10125A0020000330BC0A3C02031C22292030F00083
:10126A001830F101B1278831B8268831250069087C
:10127A00F7006808F6002E2688317708A30076085A
:10128A00A2000830A1008030A00025006B08F700FA
:10129A006A08F6002E2688317708A7007608A60085
:1012AA000830A500A401BC01BC0A0730F0003C08C4
:1012BA00B4258831BA3EA92788312E2688313C08C0
:1012CA00090709070907223EA1278831F52788312E
:1012DA000730F0003C08B425BE3E9C31E224883138
:1012EA0020003C089B27883188308701810007301D
:1012FA00F0003C08B4258831BC3EA92788312E2647
:10130A0088313C08090709070907263EA1279C31AD
:10131A00F0248831F0003C08B425BF3E9C31E22419
:10132A00883120003C089C31F6248831033087013B
:10133A008101BC0A3C02031C5A293D000E13080015
:10134A003D00101CAC29C72088313D001010901EAA
:10135A00D6292000E601E60AE70198302000E000DD
:10136A000E30E10066086007E2006708613DE300AD
:10137A006208E4006308E5006408860065088700DF
:10138A000110E60A0319E70A6708803AE00080308C
:10139A006002031DD22903306602031CB2293D00F4
:1013AA0090129019921DAE2D0F0C2000E000E00C57
:1013BA00600C0F39031DE92C3D000F19E92C2000A0
:1013CA00200C890C0F39E8000D3A031D8D2C2500DD
:1013DA0069082000DF00250068082000DE005E089A
:1013EA0086005F0887000030811B0130ED00DB2694
:1013FA008831A41F052A022A052A0830A500A4015B
:10140A006A08690403190D2A0B2A0D2A8C268831C9
:10141A005E0886005F088700010E890C0339031DE8
:10142A00882C182A882CCC01250069082000DC00A9
:10143A00250068082000DB005B0886005C0887003E
:10144A0041310108063A031DBE2A2C2ABE2A5B082E
:10145A0086005C0887000108803A031DBE2A362AE6
:10146A00BE2A5B0886005C0887004231403FC30001
:10147A00413FC400D6005B0886005C088700423101
:10148A000108D700560B622A4B2A622A4A30B80052
:10149A009930B9004A308400993085000008BA00B2
:1014AA00BB015B0886005C0887004631403FBC00F0
:1014BA00413FBD00C0258831812C5608023A031DE0
:1014CA00962A682A962A5708031D6C2A6F2A292603
:1014DA008831812C57356E3E860003308700403FA5
:1014EA00CF00413FD0005008B9004F08B80050085B
:1014FA00C4004F08C300023E840044080318440A8B
:10150A008500003FBA00013FBB005B0886005C080B
:10151A0087004631403FBC00413FBD00C0258831AD
:10152A00812C5608033A031D6C2A9C2A6C2A5830CF
:10153A00F0005708DF2688317108D2007008D10000
:10154A00D21FAA2A6C2AAA2A6C2A5908B900580852
:10155A00B8005208BB005108BA005B0886005C0854
:10156A0087004631403FBC00413FBD00C02588315D
:10157A00812C5B0886005C08870041310108053A26
:10158A00031DD82AC92AD82A2600EB01EB0A200013
:10159A005B0886005C088700423101082600EA00E1
:1015AA0096268831812C5B0886005C0887004131C9
:1015BA000108093A031DF12AE32AF12A5B08860089
:1015CA005C08870042310108C7001C218831962631
:1015DA0088314708EF00812C5B0886005C08870089
:1015EA0041310108083A031D0F2BFC2A0F2B6F30DB
:1015FA00B8000030B900BA01BA0ABB015B0886001C
:10160A005C0887004631403FBC00413FBD00C02511
:10161A008831812C5B0886005C088700413181088B
:10162A00031D8A2B192B8A2B5B0886005C0887000E
:10163A0001081F39031D382B232B382BCA01CB0174
:10164A004A30B8000030B9000230BA00BB015B086A
:10165A0086005C0887004631403FBC00413FBD0020
:10166A00C0258831812C5B0886005C088700010848
:10167A001F39023A031D6C2A432B6C2A5B08860029
:10168A005C08870044310108D4000F30D4050330C8
:10169A00540203186C2A522B6C2A0730F0005408A3
:1016AA00B4258831C03E8600033087000108200037
:1016BA00D3005B0886005C0887004431811B6C2BD1
:1016CA00672B6C2B53080139C500C601702B5308D0
:1016DA000239C500C601460845040030031D013021
:1016EA00C800C9014830B8000030B9000230BA0059
:1016FA00BB015B0886005C0887004631403FBC009E
:10170A00413FBD00C0258831812C5B0886005C08FA
:10171A008700413101080B3A031D962BD52A962BD7
:10172A00D52A5B0886005C088700413101080A3A1D
:10173A00031DB52BA12BB52BCE014E30B8000030BE
:10174A00B900BA01BA0ABB015B0886005C088700C7
:10175A004631403FBC00413FBD00C0258831812C45
:10176A005B0886005C088700413101030319CA2B14
:10177A00BF2BCA2B5B0886005C0887004131010831
:10178A00033A031D7F2CCA2B7F2CCD01CD0A5B089F
:10179A0086005C08870001081F39023A031D792C6C
:1017AA00D72B792C5B0886005C088700423116002B
:1017BA000104031D792CE22B792C5B0886005C0856
:1017CA00870044310108DA000F30DA055B08860029
:1017DA005C08870044310108D5008030D505033004
:1017EA005A020318792CFA2B792C5B0886005C08BC
:1017FA00870041310108033A031D112C052C112CD5
:10180A005508031D092C0D2C5A084E278831772CB0
:10181A005A0862278831772C5508031D152C462C47
:10182A005A08090709070907253E86000730870174
:10183A00F0005A08B4258831BF3E84000330850081
:10184A000008810020005A08090709070907243EF1
:10185A008600870181010730F0005A08B4258831D3
:10186A00C03E86000330870081110730F000200057
:10187A005A08B4258831C03E86000330870081109B
:10188A00772C5A08090709070907213E86000730FD
:10189A008701F0005A08B4258831BE3E840003301F
:1018AA0085000008810020005A080907090709076E
:1018BA00203E86008830870181000730F0005A08F0
:1018CA00B4258831C03E86000330870001150730F1
:1018DA00F00020005A08B4258831C03E8600033043
:1018EA00870001102000CD01CD08031D6C2AD52ADE
:1018FA006C2AD52ACC01CC0320004C08DD00DD1F60
:10190A008A2C882C8A2C292688313D000E12E62C36
:10191A006808093A0319E62C680BE42C2108BA0076
:10192A006D0B9C2C992C9C2C8C268831E32C6E08F0
:10193A00031DA02CE32C3A08FB00FC016A087C0278
:10194A00031DA92C69087B02031CB22CAD2CB22CF6
:10195A006A08B9006908B800B52C3A08B800B90194
:10196A003808BB006E08F000F10125006908F30091
:10197A006808F20020003B08F400F5016826883167
:10198A0020003B08EE073B08E902031CEA03083083
:10199A003A02031CD82CD22CD82C6A086904031DDD
:1019AA00E32CD82CE32C3A083B020318E12CDE2C5A
:1019BA00E12C29268831992C96268831E62C29266D
:1019CA00883180278831AC2D3D000F0C2000E000C3
:1019DA00E00C600C0F39031D622D3D000F1D622DB6
:1019EA0026006B08031DFA2CFF2C6A083D0096009E
:1019FA002600EB0120006A08690403194C2D062D04
:101A0A004C2D00306A02083003196902031C132D99
:101A1A000F2D132D0830FB00FC01172D6A08FC005E
:101A2A006908FB007B08FD0025006B08F1006A08C5
:101A3A00F00027003908F3003808F2007D08F400A6
:101A4A00F501682688317D082000E902031CEA03B3
:101A5A007D082700B8070318B90A20006A08690434
:101A6A00031D462D392D462D7D08083A031D462DA6
:101A7A003F2D462D26006D08031D442D462DEC01F1
:101A8A00EC0A7D08F400F5019C268831612D2600B8
:101A9A006C08031D512D5A2DF401F5019C2688313D
:101AAA002600EC018C268831612D2000ED08031DEB
:101ABA00612D572D612D572DAC2D3D000F0C2000A7
:101ACA00E000E00C600C0F390319AC2D3D000F0C3F
:101ADA002000E000E00C600C0F39E10003306102E5
:101AEA000318AC2D3D000F1D942D0730F0000F0C8C
:101AFA002000E000E00C600C0F39B4258831C03EAC
:101B0A00860003308700811CAC2D3D000F0C20009D
:101B1A00E000E00C600C0F393B278831AC2D073010
:101B2A00F0000F0C2000E000E00C600C0F39B42527
:101B3A008831C03E860003308700011CAC2D3D0071
:101B4A000F0C2000E000E00C600C0F3976273D00F6
:101B5A009011101B10132000121912110800F10025
:101B6A00F20170087118F207F035F136F108031D19
:101B7A00B62D7208080000303B02083003193A02F9
:101B8A00031CCB2D0830BE00BF01CF2D3B08BF0080
:101B9A003A08BE003E08C200FB00FC013D087C0278
:101BAA00031DD92D3C087B02031CE02D3D08C10012
:101BBA003C08C000E32D4208C000C1014008C20031
:101BCA003D083B02031DEB2D3C083A020030031C82
:101BDA0001302600ED0025006B08F1006A08F000CC
:101BEA0020003908F3003808F2004208F400F50131
:101BFA0068268831200039082700B90020003808F3
:101C0A002700B800200042082700B8070318B90ABD
:101C1A0020003B083D02031D142E3A083C02031C17
:101C2A001A2E3B08EA003A081D2E3D08EA003C0835
:101C3A00E9004208E902031CEA032500EC1520002A
:101C4A004208F400F5019C2E0830A5008430A40057
:101C5A00080077082000BB007608BA0020303B0253
:101C6A00003003193A023B08031C3F2EF7003A08DA
:101C7A00F6000800B8003A08B9008039F800F901FE
:101C8A003808FA00FB01FA35FB0D78087A07FC00E0
:101C9A0079087B3DFD007C040030031D0130F00013
:101CAA005030F101F200F30186277108F70070083D
:101CBA00F60039087F39F6070318F70AE030F60705
:101CCA001F30F73D08007308FA007208F90071081E
:101CDA00F8007008F7000130F4020030F53B740A8E
:101CEA000319750A03190800790884007A0885001F
:101CFA000008F600770886007808870076088100D1
:101D0A00F90A0319FA0AF70A0319F80A702E2700C2
:101D1A00B801B9012000EE01E901EA01EB01EC0189
:101D2A0008002000C830A401A501A4000800003062
:101D3A00CF2688310038031D080000302500EC1931
:101D4A000130F6002000A40176080319B02E7408A9
:101D5A00A500C830B32E7408A5008830A400083046
:101D6A002500EC0608007108F7007008F60001303B
:101D7A00F4020030F53B740A0319750A03190800C6
:101D8A00760886007708870072088100F60A031928
:101D9A00F70ABC2EF3000730F0007308B425C03EE2
:101DAA008600033087000108023908000830A500C0
:101DBA00A4010800F300F308031DEE2E7008860044
:101DCA005C308701C03F9930C13F0430F000F10117
:101DDA000800730BFB2E70088600BE308701C03FD7
:101DEA009830C13F3030F000F10108007308023A20
:101DFA00031D0A2F7008860030308701C03F9930D2
:101E0A00C13F1A30F000F10108007308033A031DBC
:101E1A00192F7008860014308701C03F9930C13FDE
:101E2A001C30F000F10108007308043A031D282F42
:101E3A0070088600EE308701C03F9830C13F2630D7
:101E4A00F000F10108007308053A031D372F7008E6
:101E5A00860000308701C03F9830C13F7830F000DB
:101E6A00F1010800FF30F000F1000800F3009C3196
:101E7A00F02488318701F0007308B425BF3E9C31F5
:101E8A00E224883173089C31F6248430870181006A
:101E9A000800F400740803190800033074020318D8
:101EAA0008000730F0007408B4258831C03E860067
:101EBA0003308700811474083B2FF3007308031959
:101ECA00080003307302031808000730F000730893
:101EDA00B4258831C03E8600033087000114730898
:101EEA00762FF000F52788318701810170089B273A
:101EFA0084308100080008302000A1008030A00052
:101F0A000800F401F501701C8E2F7208F40773089B
:101F1A00F53DF235F30DF136F00C71087004031D2E
:101F2A00882F7508F1007408F000080009070907EE
:101F3A000907203E86000800860087017608C03F10
:101F4A007708C13F3C080800860003308700403FFD
:101F5A00F600413FF7000800F201F301F400F50131
:101F6A0008002100A4000730A00024088731832735
:101F7A008831C03E860003308700003001190130E5
:101F8A00A30023080319D92F2408F5278831FB2732
:101F9A00873183278831BE3E9C31E2248831240868
:101FAA009B278831C830E72F2408F5278831FB277B
:101FBA00873183278831BE3E9C31E2248831240848
:101FCA009B278830870181000730A00024088731C9
:101FDA008327C03E8600033087000430810608004C
:101FEA00090709070907213E86000800073087010B
:061FFA00A000240808000D
:10206C0004302100A4000C30A3003530A200A20BD8
:10207C003D28A30B3D28A40B3D28003222000E1650
:10208C008E1210302100A3009430A200A20B4C2819
:10209C00A30B4C28000022008E110E1310302100CF
:1020AC00A3009430A200A20B5928A30B59280000BE
:1020BC0022000E178E1510302100A3009430A200C0
:1020CC00A20B6628A30B6628000022000E126430B7
:1020DC002100A000A101EB2A2400BA013A08903E8D
:1020EC00C023903124003A0809070907A03E860056
:1020FC000330CC2387310127903124000430BA0AF5
:10210C003A02031C74289030B100B001AF01AE014B
:10211C00BA013A08983EC02305302100A0002400E3
:10212C003A08873183279031603E86000330CC23F8
:10213C00873101279031B82824000830AD282400BD
:10214C000C30AD2824000230AD2824000330B5013A
:10215C00B400B301B201EE282400B201B301B40102
:10216C00B501EE280530A00024003A0887318327FA
:10217C009031643E86000330870001082300E9009B
:10218C00EA0124003A082100A0000A30A101A200B3
:10219C00A3019C31C324903123006908210020073E
:1021AC002300EB006A082100213D2300EC000319F9
:1021BC00E028B2286B08003A0319A228013A031947
:1021CC00A5280B3A0319A828013A0319AB28B22801
:1021DC003208AE043308AF043408B0043508B10437
:1021EC000230BA0A3A02031C8F289C302300D50017
:1021FC00D601D701D801240031082300DC002400CB
:10220C0030082300DB0024002F082300DA00240010
:10221C002E082300D9008731012790319E30F523F9
:10222C0090313F219031952390310030B604AF307E
:10223C00B7044A30B8049230B9049E302300D5005C
:10224C0081238731012790319D30F52390313F2137
:10225C009031952390310230B6048030B704203091
:10226C00B8048230B9049D302300D5008123873116
:10227C00012F9E310F269031FC302400A9051F3010
:10228C002300D900DA01DB01DC015508DD0056081A
:10229C00DE005708DF005808E0000530E036DF0CA0
:1022AC00DE0CDD0C890B54295D08D9055E08DA05B6
:1022BC005F08DB056008DC051F305505E1000030C8
:1022CC00E201E3015805E4000530E135E20DE30DD0
:1022DC00E40D890B6B296108D9046208DA046308E0
:1022EC00DB046408DC040B30D935DA0DDB0DDC0DB6
:1022FC00890B7A295C08A5239031A6302300D900DC
:10230C000230DA007C30DB01DC002A30860002303F
:10231C008700403FD907413FDA3D423FDB3D433F19
:10232C00DC3D5C08A523903129302100A800023047
:10233C00A9002430AA000230AB00D6219031AB1F8B
:10234C00B129DE302300D800AD30D700BE30D60026
:10235C00EF30D5000800FB239031092347082400F7
:10236C00A300210046082400A200210045082400F7
:10237C00A100210044082400A0009E313D26240029
:10238C0023082300D800240022082300D7002400AF
:10239C0021082300D600240020082300D5000800C3
:1023AC00BE01BF012B08A1002A08A00005309D31F9
:1023BC0004259031F22290310230A000A101EB22D1
:1023CC0090312100D723903102390319F6290730B7
:1023DC00B8004030B901BA00BB01BC01BD01FE29F7
:1023EC002030B8008030B901BD00BC01BB01BA017E
:1023FC00A001A00AA101A201A301CE2290312A08BA
:10240C0086002B08870001082006FE392006810073
:10241C00D7239031023900249031CE2290312008FC
:10242C00AC002A0886002B088700DE239031E523B8
:10243C009031AC00AC35DE239031D723903101398B
:10244C0000249031CE229031E5239031AC0020084D
:10245C00AC04DE239031452A20303B2AFD30372A4C
:10246C00FC30BE00FF30BF000730C000C101532A52
:10247C00FF30AB00AA00A900FB30A8000800E52340
:10248C0090310319322A013A0319342A033A0319F9
:10249C00362A013A03193A2A3E2A280886002908C6
:1024AC0087004131403FB000413FB100423FB20094
:1024BC00433FB3002A08013EAC0000302B3DAD0079
:1024CC002C0886002D0887000030C03FC13FC23F5A
:1024DC00C33FC201C3014308803AAC003908803ABB
:1024EC002C02031D7B2A380842020318B42A21004F
:1024FC002A08B42390313308B7003208B6003108EB
:10250C00B5003008B4003A08B4053B08B5053C08E2
:10251C00B6053D08B7053708A3003608A2003508F4
:10252C00A1003408A000CE22903167239031BD3633
:10253C00BC0CBB0CBA0CC20A0319C30A712A2100C9
:10254C002A08B4239031A001A101A201A301CE223B
:10255C00903167239031C20A0319C30A2100430842
:10256C00803AAC004108803A2C02031DBF2A400877
:10257C004202031CA52A22008E1221003E08A8004C
:10258C003F08A900890D893B8909AA00AB00080006
:10259C00A401A50120008C1ED72A2100A401A40AA5
:1025AC00A501210023082204210420040319E12A97
:1025BC0022008E16E32A22008E120E160E12210015
:1025CC002508A1002408A000080020008C1E08008B
:1025DC0022000E160E12EB2A2108A7002008A600D6
:1025EC000130A4020030A53B240A0319250A031963
:1025FC000800260886002708870022088100A60A02
:10260C000319A70AF62AFF30C405DF30C505FF30D1
:10261C00C605C705FC302300CB05CC01CD01CE018E
:10262C00CF0121004408C8004508C9004608CA006B
:10263C004708CB001530C835C90DCA0DCB0D890B19
:10264C00212BA63048072300CC009B302100493DAC
:10265C002300CD00163021004A3D2300CE007C30F3
:10266C0021004B3D2300CF00CB30EC239031D62101
:10267C009031AB1F4A2BDE30C700AD30C600BE30E8
:10268C00C500EF30C4000800FC302300CB056030DF
:10269C00CF00CB30CE01CD01CC01EC239031D62133
:1026AC009031AB1B412B0130D03E860001308700AE
:1026BC00403FC400413FC500423FC600433FC700F6
:1026CC0008002008AC002108AD000030AD1BFF3025
:1026DC00AE00AF002A0886002B08870041312C0879
:1026EC00810441312D08810441312E08810441318E
:1026FC002F0881040800D601D701D801240039081D
:10270C002300DC00240038082300DB0024003708F9
:10271C002300DA00240036082300D90008005808EA
:10272C002400B900230057082400B80023005608E1
:10273C002400B700230055082400B600080024002C
:10274C00AD0023005B082400AC0023005A082400D1
:10275C00AB00230059082400AA00080086002B08AF
:10276C008700413181354131810D4131810D41313C
:10277C00810D08002300D500003003180130D6006D
:10278C00D701D61BD7035708D80008008700403F55
:10279C002300D900413FDA00423FDB00433FDC001D
:1027AC00080028088600290887000108033908005A
:1027BC00AC0D01082C06F9392C06810008002A08FA
:1027CC0086002B088700010C033908002100A800A3
:1027DC000130A900D030AA000130AB000800230062
:1027EC00D500D601D701D8010800C401C501C60126
:1027FC00C7010800A000A101A201A3010800AF00BD
:10280C0002309F31972794312408AE002308AD0085
:10281C00B0010230AE27943100380230031D102C69
:10282C009F3112279431003803192A2C0F2C2B08B6
:10283C0086000230870030082F07AC00840002307D
:10284C00850000088107B00A30082F07AC0086000D
:10285C00023087008108031D1D2C2E08A1002D08B5
:10286C00A0002F08A2000230A3003008A400A5018C
:10287C0087279431AB279431003A031908000230B2
:10288C009F31122794310038031D08000230AE2707
:10289C0094310038031D08003008A4000230A50153
:1028AC009F31A72F90308400233085006030FE00CC
:1028BC00FF01883115209431E901EA01EB01EC01AB
:1028CC00ED01EE01EF0125006030ED01EE01EF01AD
:1028DC008400033085000E30FE000030FF0088318C
:1028EC0015209431A0308400033085001A30FE008E
:1028FC000030FF008831152094318030E800203002
:10290C00E9008830EA002030EB000030EC002600B3
:10291C007830EE009830EF0027000030BA00BB0092
:10292C00BC00BD00BE00BF00C0009030C100203014
:10293C00C2009130C3002030C4000130C5000A3001
:10294C00C6000030C7009B30C8002030C900DB3007
:10295C00CA002030CB004030CC00CD000030CE007F
:10296C007E102000B92C20308600033087004030C8
:10297C002400DA0000301E00DA0BC12CB72794318A
:10298C00E6279B319E2394310330A000A1019A319C
:10299C003A2294318731CD27943125006D080319E3
:1029AC00102D88317020943147082400E500210057
:1029BC0046082400E400210045082400E30021001F
:1029CC0044082400E2009C30DB00D730DA00DA0B3C
:1029DC00ED2CDB0BED2C2400621BF62C2500102DAE
:1029EC0025006D0B012DAD302400B5009930B600DB
:1029FC002B30D126943125006D08023A031D0E2D83
:102A0C00A9302400B5009930B6002B30D126943172
:102A1C002500ED01AB279431003A0319D32C023079
:102A2C00F22794310038031DD32C02308831A620B4
:102A3C009431003A0319D32CE030A30002308831D2
:102A4C00AF2094312400EB00EC016C040319792DB8
:102A5C002500E70167082400DA00DB016C085B0243
:102A6C00031D3A2D6B085A020318792D5F3025008F
:102A7C006E020318752D67082400DA00DB012500AF
:102A8C006007860024005B082500613D8700010873
:102A9C00033A031D542D88313620943125006708E4
:102AAC002400DA00DB0125006007860024005B08A7
:102ABC002500613D870001082400DC0025006E081C
:102ACC00903E2400DD002330DE01DE3D5D088600F3
:102ADC005E0887005C0881002500EE0A772DEE0168
:102AEC00CC2EE70A302D25006E08903E8600233050
:102AFC008701873D8101E701E3012400EE012500F8
:102B0C00E601E5016E0867020318802E67082400B1
:102B1C00EF00912DEF0A25006E0824006F020318B8
:102B2C00A72D6F08903E860023308701873D010852
:102B3C00243A031D902D6F082500E6002400EE01B9
:102B4C00EE0A25006708013EE200AD2DE20A6E0890
:102B5C0062020318BF2D6208903E86002330870165
:102B6C00873D0108233A031DAC2D6208E500E30103
:102B7C00E30A24006E0803197D2E2500630803194F
:102B8C007D2E65082400DA00DB015B08DD002500E2
:102B9C00660824005A02DC00031CDD035D08803A41
:102BAC00DE0080305E02031DDD2D01305C02031857
:102BBC00E12D25007D2E250065082400DA009230D9
:102BCC00DB01DC002330DD005A085C0786005B0863
:102BDC005D3D870001082100A00025006508240048
:102BEC00DE009130DF01E0002330E1005E08600779
:102BFC0086005F08613D87000108883121209431EF
:102C0C002400E600250066086502FF3E2400ED0066
:102C1C00E701E801E901EA012500E40124006D085F
:102C2C0025006402640803184B2E203E86000330F6
:102C3C00870064082400DA00DB0125006608240004
:102C4C00DC009130DD01DE002330DF005C085E0724
:102C5C00E0005D085F3DE1005A08600784005B08F6
:102C6C00613D85000008810025006408203E860037
:102C7C0001082400E70701300318E8070318E907E7
:102C8C000318EA072500E40A142E203E86000330C0
:102C9C008700FF3081012400E705E801E901EA0122
:102CAC006608DA00DB01DC01DD016A085D06031D44
:102CBC00692E69085C06031D692E68085B06031DF6
:102CCC00692E67085A06031D762E22000D17240064
:102CDC006D08C200203080310C20943122000D137D
:102CEC002500E3012400EE0125006508E70025001E
:102CFC00E70A882DE308031DC42EE7016E082400A3
:102D0C00DA00DB015B08DD002500660824005A02AE
:102D1C00DC00031CDD035D08803A803C031D992E0A
:102D2C005C08250067020318C12E250066082400E4
:102D3C00DA00DB0125006708903E2400DC0023301C
:102D4C00DD01DD3D5A085C0786005B085D3D8700B0
:102D5C000108DE0025006708903E2400DF002330C8
:102D6C00E001E03D5F088600600887005E08810096
:102D7C002500E70A842E25006608EE022400EE08E2
:102D8C00031DCC2E2500E3080319752D02308F315D
:102D9C00B6279431D32CBE0002309F319727943143
:102DAC0024082400C000210023082400BF00BD011A
:102DBC00C1013608CE27943100380319EB2E3608A2
:102DCC00CE279431BD07C10ADF2E0230AE279431D5
:102DDC0000380230031DEC2E9F311227943100383D
:102DEC00031DEB2E24003E0803191E2F3F088600FE
:102DFC00400887003E0881003F08013EB7000030C4
:102E0C00403DB800370886003808E1279431031993
:102E1C001B2F4008DA2794310230A0070318A10AAF
:102E2C002400C1279431872794312400C10A302F04
:102E3C003F0886004008E12794310319302F4008E1
:102E4C00DA279431A00A0319A10A2400C12794316E
:102E5C008727943124004108B700B8013F07B90017
:102E6C003808403DBA003908013EBB0000303A3DFD
:102E7C00BC003B0886003C088700233081004008DA
:102E8C002300E90024003F082300E80024003D084B
:102E9C002300EA00EB01EC01ED01EE01EE0A240047
:102EAC004108023E2300EF009F3120279431C101DD
:102EBC004108C10AB700B8013F0786003808403DF9
:102ECC0087008108031D5E2FAB279431003A03194C
:102EDC00080002309F31122794310038031D08007E
:102EEC000230AE2794310038031D0800240041083D
:102EFC002100A400FF30A501A407A53D02309F319D
:102F0C00A72F2308AA002208A9002108A80020083E
:102F1C00A7000130A4020030A53B240A0319250A9E
:102F2C0003190800290884002A0885000008A60057
:102F3C00270886002808870026088100A90A03199B
:102F4C00AA0AA70A0319A80A8F2F20006F080800E5
:102F5C002100A0009C31F6248701010D010D0139DF
:102F6C0008002100191099101915991519169916A0
:102F7C0019139917080036082100A30024003508FE
:102F8C002100A200240041082100A400A501080092
:102F9C00B8003508B7004108370784003808031813
:102FAC00380A8500000808002100A10024003F0811
:102FBC002100A0000800870024308100410808008F
:102FCC0001308C000D138E013C30990427001B1628
:102FDC009B170B178B1708002100A3000730A000CC
:102FEC00230887318327C03E860003308700010801
:102FFC000139080078340334463400344134003449
:10300C004B34003445340034203400345334003411
:10301C006534003472340034693400346134003463
:10302C006C340034203400344E34003475340034A5
:10303C006D3400346234003465340034723400343E
:10304C003A34003420340034443400346F340034C7
:10305C006E3400342734003474340034203400349B
:10306C007334003468340034693400347034003400
:10307C002034003461340034203400347034003493
:10308C00723400346F3400346434003475340034DA
:10309C006334003474340034203400346C34003421
:1030AC00693400346B34003465340034203400341B
:1030BC0074340034683400346934003473340034AC
:1030CC002E34003420340034503400344C3400346A
:1030DC004534003441340034533400344534003426
:1030EC0021340034093402344634003402340134BF
:1030FC0002348034FA3408340B3400340234023491
:10310C000234003402340934043400340034013401
:10311C0002340234003403340534243400341034C3
:10312C000134043424340234063405342434063493
:10313C000034013407340534813403340A34003448
:10314C000134093404340134003402340A340034B8
:10315C0000340434073405348234023440340034EF
:10316C000134073405340234023440340034013461
:10317C00303403345334003469340034673400344D
:10318C006E340034613400346C3400342034003438
:10319C0031340034313400342034003453340034AE
:1031AC006F340034663400347434003477340034B3
:1031BC00613400347234003465340034203400340B
:1031CC004C3400344C340034433400342E3400344A
:1031DC002634033443340034443400344334003450
:1031EC0020340034443400346134003474340034FA
:1031FC006134003420340034493400346E340034EB
:10320C007434003465340034723400346634003461
:10321C006134003463340034653400341C340334BA
:10322C004334003444340034433400342034003408
:10323C00493400346E340034743400346534003452
:10324C007234003466340034613400346334003436
:10325C00653400341A340334553400345334003498
:10326C0042340034203400344334003444340034C9
:10327C004334003420340034543400346534003486
:10328C007334003474340034123401340034023496
:10329C00EF34023401340834A034A0340434003444
:1032AC000134003401340234053401340434033461
:1032BC00093404345034613463346B34653453341E
:1032CC0069347A3465343D34363434343B346D34BB
:1032DC0075346C3474346934703472346F346334D0
:1032EC006534733473342D343B3473347734623433
:1032FC007234653461346B342B343B34683477343A
:10330C0062347234653461346B342B343B34713435
:10331C00523465346C346F34633449346E347334E2
:10332C006E342D343B34763443346F346E34743411
:10333C0053347534703470346F347234743465347F
:10334C0064342D3400345334303435340034543434
:0C335C003034353400344F344B3400342E
:10347400A401A5012508803AA2002108803A22026D
:10348400031D462A200824020318732A22000D1360
:103494002100A601A7019C302100A300D730A2007F
:1034A400A20B522AA30B522A210076229A31031C22
:1034B4004D2A22000D172100A601A7019C302100EE
:1034C400A300D730A200A20B652AA30B652A210012
:1034D40076229A31031C602A2100A40A0319A50A42
:1034E4003C2A22000D130800A60A0319A70A27087C
:1034F400803AA20080302202031D08001430260204
:10350400080095302300D500D601D701D8019131A8
:103514003F219A3158082400BB0023005708240097
:10352400BA00230056082400B900230055082400DB
:10353400B8003B082300DC0024003A082300DB0029
:10354400240039082300DA00240038082300D900B5
:1035540095305914D500D601D701D80187310127F8
:103564009A311B302300D500D601D701D8019131FF
:103574003F219A3158082400BF0023005708240033
:10358400BE00230056082400BD0023005508240073
:10359400BC00FF30BC05F930BD05FF30BE05BF05DA
:1035A4001B303D152300D500D601D701D8012400D6
:1035B4003F082300DC0024003E082300DB00240035
:1035C4003D082300DA0024003C082300D900873199
:1035D40001279A315D2B95302300D500D601D70100
:1035E400D80191313F219A3158082400BB002300AF
:1035F40057082400BA00230056082400B900230009
:1036040055082400B800FE30B805FF30B905BA05E6
:10361400BB0595302300D500D601D701D80124007D
:103624003B082300DC0024003A082300DB002400CC
:1036340039082300DA00240038082300D900873130
:1036440001279A311B302300D500D601D701D801B8
:1036540091313F219A3158082400BF0023005708B4
:103664002400BE00230056082400BD002300550892
:103674002400BC00FF30BC05F930BD05FF30BE0599
:10368400BF051B302300D500D601D701D801240083
:103694003F082300DC0024003E082300DB00240054
:1036A4003D082300DA0024003C082300D9008731B8
:1036B40001279A315D2B94302300D500D601D70120
:1036C400D80191313F219A31FC302400AE054C30B1
:1036D400B2000130B101B0002C30AF002E30210017
:1036E400A8000230A9003330AA000230AB009131A7
:1036F400D6219A31AB1F832BFF302300E500E6006F
:103704000800FC302400AE054C30B2006430B10136
:10371400B001AF002E302100A8000230A9003330E0
:10372400AA000230AB009131D6219A31AB1B7E2B1B
:103734002300E501E60108003D00111091109201FB
:1037440097018E1511161115901190119011901169
:10375400900192159216121498302100A0000E3098
:10376400A100103004259231F2229B313D0018163D
:1037740098111815981418102100B501B50A3508C8
:10378400983EB3000E30B401B43D3308B60034089B
:10379400B700360886003708870001163608860009
:1037A4003708870081153608860037088700011519
:1037B40036088600370887008114360886003708E3
:1037C400870003300110B50A3502031CC12B3D00EC
:1037D40096012600EB012000EF01F5239B31D8244C
:1037E4002100121508003D000E172500EC012100F0
:1037F400B2010730A0003208873183279B31C03ED5
:10380400860003308700043081000330B20A32029C
:10381400031CFB2B2030A0001830A1010425923199
:10382400F2229B31250069082100A70025006808C1
:103834002100A6008A249B3127082000A300210030
:1038440026082000A2000830A1008030A000250036
:103854006B082100A70025006A082100A6008A241D
:1038640027082000A700210026082000A600083011
:10387400A500A4012100B201B20A0730A000320859
:10388400873183279B31BA3EFC249B318A249B31A8
:103894003208090709070907223EE8248F31F52772
:1038A4009B310730A0003208873183279B31BE3E0D
:1038B400E22432088F319B279B31883087018100B5
:1038C4000730A0003208873183279B31BC3EFC249B
:1038D4009B318A249B313208090709070907263ED0
:1038E400E8249B31F024A0003208873183279B31E0
:1038F400BF3EE2249B313208F6249B31033087011A
:103904008101B20A3202031C3F2C3D000E13080051
:103914002708B1002608B000203031020030031916
:1039240030023108031C9A2CA7003008A6000800B6
:10393400AE003008AF008039A800A9012E08AA0003
:10394400AB01AA35AB0D28082A07AC0029082B3D8A
:10395400AD002C040030031D0130A0005030A10143
:10396400A200A301C3242108A7002008A6002F0851
:103974007F39A6070318A70AE030A6071F30A73D22
:103984000800A401A501201CCB2C2208A4072308AD
:10399400A53DA235A30DA136A00C21082004031DCA
:1039A400C52C2508A1002408A00008002700B801A0
:1039B400B9012000EE01E901EA01EB01EC01080084
:1039C4008400033085000008810008008600870118
:1039D4002608C03F2708C13F320808000907090725
:1039E4000907253E86000734090709070907243E0D
:1039F40086000800860003308700403FA600413F50
:103A0400A7000800A201A301A400A50108000F2635
:103A14009D3171269D3158082100CB0023005708A1
:103A24002100CA00230056082100C90023005508BC
:103A34002100C800C4259D31C401C501C601C701C8
:103A440023005C082100CB0023005B082100CA008E
:103A540023005A082100C900230059082100C80086
:103A6400C4259D31FC302300E305432D90303D2DCA
:103A7400B0303D2D9830E7000130E600E501E40167
:103A84004E2D5D08013A03193C2D033A03193A2DD2
:103A9400063A0319382D4E2DE3302100A8000130D9
:103AA400A900DE30AA000130AB009131D6219D314E
:103AB400AB1B08003D2E0F269D3171269D31580801
:103AC4002100CB00230057082100CA002300560818
:103AD4002100C900230055082100C800C4259D31D8
:103AE400FC302300E305812D80307B2DA0307B2D1D
:103AF4008830E7000130E600E501E4018C2D590827
:103B0400013A03197A2D033A0319782D063A031959
:103B1400762D8C2DE3302100A8000130A900DE3081
:103B2400AA000130AB009131D6219D31AB1FA42DE9
:103B3400DE302300D800AD30D700BE30D600EF30E1
:103B4400D50008009331FB239D31933109239D3126
:103B540047082300DD00210046082300DC00210083
:103B640045082300DB00210044082300DA003D2639
:103B740023005D08D8005C08D7005B08D6005A080B
:103B8400D5000800FF30C405DF30C505FF30C60589
:103B9400C705FC302300CB0521004408CC004508B0
:103BA400CD004608CE004708CF001530CC35CD0DEA
:103BB400CE0DCF0D890BD82DA6304C072300CC0099
:103BC4009A3021004D3D2300CD00163021004E3D9A
:103BD4002300CE007C3021004F3D2300CF00672618
:103BE4009131D6219D31AB1B080023004B08FC39D1
:103BF4000138CB0021004B082300CF0021004A08E4
:103C04002300CE00210049082300CD0021004808EC
:103C14002300CC0067269131D62921009331FB2360
:103C24009D31933109239D3147082700B3002100BA
:103C340046082700B200210045082700B1002100F2
:103C440044082700B0002100C401C40AC501C6010C
:103C5400C7019331092347082700B700210046080C
:103C64002700B600210045082700B50021004408BC
:103C74002700B40008002100C401C501C601C70122
:103C8400270033082100CB00270032082100CA0096
:103C9400270031082100C900270030082100C8008E
:103CA400C4259D310430C401C40AC501C601C7013D
:103CB400B03E860003308700403FC800413FC90042
:103CC400423FCA00433FCB00C42DCB302100A800A3
:103CD4000130A900D030AA000130AB000800210057
:103CE400C401C40AC501C601C70123000800AC0011
:103CF400023097272408AE002308AD000230973124
:103D0400AE279E3100380230031D812E12279E31CA
:103D14000038031D802E29088600023087008101A7
:103D24002D0886002E0887002C0881002D08013EEE
:103D3400AA0000302E3DAB002A0886002B0887001D
:103D4400243081009731AB279E31003A03190800D3
:103D5400023012279E310038031D080002309731CB
:103D6400AE279E310038031D08000230A400A501CF
:103D7400A72FB7000230972724082400B60021009B
:103D840023082400B500370886000230870037086E
:103D94008400023085000008810002309731AE278C
:103DA4009E3100380230031DD02E12279E31003878
:103DB400031DCF2E240035088600360887002330E3
:103DC400810036082300E900240035082300E800B8
:103DD4002400370886000230870001082300EA0027
:103DE400EB01EC01ED01EE01EE0AEF01EF0A2027F1
:103DF4009731AB279E31003A03190800023012278D
:103E04009E310038031D080002309731AE279E31E1
:103E14000038031D08000330A4000230A501A72FB9
:103E24002100A3000730A000230887318327C03E68
:103E34008600033087000108023908000F3024008F
:103E4400AC00AD01AE01AF0123006E352400B20019
:103E5400ED279E3186002108253D87008101B401AC
:103E6400320834020318080023006A082400A00062
:103E740023006B082400A10023006C082400A20086
:103E840023006D082400A3002C08A4002D08A5001D
:103E94002E08A6002F08A700340809070907890A75
:103EA400572FA435A50DA60DA70D890B532F240854
:103EB400A0052508A1052608A2052708A30534089E
:103EC40009070907890A6B2F0310A30CA20CA10C84
:103ED400A00CFF3E031D662F2008B3000A303302F6
:103EE4003308B000031C782F5730792F3030B101DC
:103EF400B0070318B10A3208ED279E31A600210845
:103F0400253DA700A90034082602A800031CA90324
:103F1400FF3EAA00FF30293DAB002A0886002B088B
:103F2400870030088100B40A322F2100A600073030
:103F3400A000260887318327BC3E86000330870013
:103F4400403FA300413FA4000800A70020006F08E1
:103F5400031908002100270812279E31003803198D
:103F6400B52F200008002708090709070907243E80
:103F7400A8000730A0002708873183279E31C03E60
:103F8400860003308700003081190130A60028081C
:103F940086008701810126080319D82F280A860084
:103FA4002408810028088600C830E02F280A8600EB
:103FB40087012408810028088600883081000730A2
:103FC400A000270887318327C03E8600033087007E
:103FD400083081060800A000A10123006F08240016
:103FE400A200A301230068072400A40023082300DF
:0C3FF400693D2400A500200824070800F7
:020000040001F9
:04000E00E4CFCFDB91
:00000001FF
